:100000000C9435000C945D000C945D000C945D0024
:100010000C945D000C945D000C945D000C945D00EC
:100020000C945D000C945D000C945D000C945D00DC
:100030000C945D000C945D000C945D000C945D00CC
:100040000C94E9010C945D000C94B7010C9491019F
:100050000C945D000C945D000C945D000C945D00AC
:100060000C945D000C945D00EB0211241FBECFEFD9
:10007000D8E0DEBFCDBF11E0A0E0B1E0E0E4F6E003
:1000800002C005900D92A635B107D9F721E0A6E58B
:10009000B1E001C01D92AC3FB207E1F710E0C5E34B
:1000A000D0E004C02197FE010E941803C433D10799
:1000B000C9F70E9433020C941E030C940000AF9207
:1000C000BF92CF92DF92EF92FF920F931F93CF9345
:1000D000DF936C017B018B01040F151FEB015E01A7
:1000E000AE18BF08C017D10759F06991D601ED913C
:1000F000FC910190F081E02DC6010995892B79F7DB
:10010000C501DF91CF911F910F91FF90EF90DF908C
:10011000CF90BF90AF900895FC01538D448D252F53
:1001200030E0842F90E0821B930B541710F0CF9691
:10013000089501970895FC01918D828D981761F0C3
:10014000A28DAE0FBF2FB11D5D968C91928D9F5FDA
:100150009F73928F90E008958FEF9FEF0895FC01B9
:10016000918D828D981731F0828DE80FF11D858D6C
:1001700090E008958FEF9FEF0895FC01918D228DFF
:10018000892F90E0805C9F4F821B91098F73992784
:1001900008958FE591E00E94BD0021E0892B09F4CC
:1001A00020E0822F089580E090E0892B29F00E94C2
:1001B000C90081110C9400000895FC01A48DA80FC2
:1001C000B92FB11DA35ABF4F2C91848D90E0019699
:1001D0008F739927848FA689B7892C93A089B189B9
:1001E0008C91837080648C93938D848D981306C05A
:1001F0000288F389E02D80818F7D80830895EF92BE
:10020000FF920F931F93CF93DF93EC0181E0888FD0
:100210009B8D8C8D98131AC0E889F989808185FFA0
:1002200015C09FB7F894EE89FF896083E889F98942
:1002300080818370806480839FBF81E090E0DF9144
:10024000CF911F910F91FF90EF900895F62E0B8D97
:1002500010E00F5F1F4F0F731127E02E8C8D8E1152
:100260000CC00FB607FCFACFE889F989808185FFB9
:10027000F5CFCE010E94DD00F1CFEB8DEC0FFD2F0D
:10028000F11DE35AFF4FF0829FB7F8940B8FEA8974
:10029000FB8980818062CFCFCF93DF93EC01888D83
:1002A0008823B9F0AA89BB89E889F9898C9185FDF1
:1002B00003C0808186FD0DC00FB607FCF7CF8C917F
:1002C00085FFF2CF808185FFEDCFCE010E94DD005A
:1002D000E9CFDF91CF9108953FB7F89480915B010A
:1002E00090915C01A0915D01B0915E0126B5A89B43
:1002F00005C02F3F19F00196A11DB11D3FBFBA2FB8
:10030000A92F982F8827BC01CD01620F711D811D77
:10031000911D42E0660F771F881F991F4A95D1F7FC
:1003200008951F920F920FB60F9211242F933F93AF
:100330004F935F936F937F938F939F93AF93BF93ED
:10034000EF93FF938FE591E00E94DD00FF91EF9125
:10035000BF91AF919F918F917F916F915F914F91DD
:100360003F912F910F900FBE0F901F9018951F92E5
:100370000F920FB60F9211242F938F939F93EF93A9
:10038000FF93E0916F01F09170018081E091750120
:10039000F091760182FD1BC09081809178018F5F82
:1003A0008F7320917901821741F0E0917801F0E09C
:1003B000E15AFE4F958F80937801FF91EF919F91C5
:1003C0008F912F910F900FBE0F901F9018958081E5
:1003D000F4CF1F920F920FB60F9211242F933F93D9
:1003E0008F939F93AF93BF93809157019091580142
:1003F000A0915901B0915A013091560123E0230F89
:100400002D3758F50196A11DB11D209356018093FB
:10041000570190935801A0935901B0935A018091CC
:100420005B0190915C01A0915D01B0915E0101962C
:10043000A11DB11D80935B0190935C01A0935D01B0
:10044000B0935E01BF91AF919F918F913F912F919A
:100450000F900FBE0F901F90189526E8230F02965D
:10046000A11DB11DD2CF789484B5826084BD84B5BE
:10047000816084BD85B5826085BD85B5816085BD9F
:1004800080916E00816080936E0010928100809157
:1004900081008260809381008091810081608093DF
:1004A0008100809180008160809380008091B10004
:1004B00084608093B1008091B00081608093B0002F
:1004C00080917A00846080937A0080917A008260C3
:1004D00080937A0080917A00816080937A00809185
:1004E0007A00806880937A001092C100E0916F01D9
:1004F000F091700182E08083E0916B01F0916C01DA
:100500001082E0916D01F0916E018FEC808310926A
:100510007701E0917301F091740186E08083E091AE
:100520007101F0917201808180618083E09171019D
:10053000F0917201808188608083E0917101F09177
:100540007201808180688083E0917101F091720175
:1005500080818F7D8083C0E0D0E04FE350E062E196
:1005600071E08FE591E00E945F0042E050E062E5BB
:1005700071E08FE591E00E945F000E946C014B01E9
:100580005C0188EBC82E8BE0D82EE12CF12C0E9468
:100590006C01681979098A099B09683E73408105D5
:1005A0009105A8F321E0C21AD108E108F10888EE0C
:1005B000880E83E0981EA11CB11CC114D104E10473
:1005C000F10429F7209749F20E94C900882329F2F3
:1005D0000E940000C2CFEFE5F1E01382128288EEA4
:1005E00093E0A0E0B0E084839583A683B78384E0A2
:1005F00091E09183808385EC90E09587848784ECFB
:1006000090E09787868780EC90E0918B808B81ECDF
:1006100090E0938B828B82EC90E0958B848B86ECC0
:1006200090E0978B868B118E128E138E148E089508
:10063000EE0FFF1F0590F491E02D0994F894FFCF81
:1006400000000000FF005F008C004C01BD009B001B
:10065000AF004D79206E616D6520697320456D6D29
:10066000616E75656C6C61205567626F6D612061AC
:100670006E64206D79206D6174726963206E756D92
:10068000626572206973203136636A3032303736E2
:0606900037000D0A000016
:00000001FF
